{
  "transactions": [
    {
      "hash": "0x6f5f806e7e2c76ea66024fa25325e83dde1b075922b6f0eb4ccad30270e1fc9f",
      "transactionType": "CALL",
      "contractName": null,
      "contractAddress": "0x00b036b58a818b1bc34d502d3fe730db729e62ac",
      "function": "initialize((address,address,uint24,int24,address),uint160)",
      "arguments": [
        "(0x09727dCebbdfC13BCaf2C03ACFc91AB14B27886b, 0x1BE9b1b76eD8d0d40DB33dCafDBCE0448e4FF200, 8388608, 60, 0x757e1F54E6f3784d312f69E76Daa3D117bc546c0)",
        "4339505179874779662909440"
      ],
      "transaction": {
        "from": "0x02af376f613938a58c9567128e82bf3536a76f27",
        "to": "0x00b036b58a818b1bc34d502d3fe730db729e62ac",
        "value": "0x0",
        "input": "0x6276cbbe00000000000000000000000009727dcebbdfc13bcaf2c03acfc91ab14b27886b0000000000000000000000001be9b1b76ed8d0d40db33dcafdbce0448e4ff2000000000000000000000000000000000000000000000000000000000000800000000000000000000000000000000000000000000000000000000000000000003c000000000000000000000000757e1f54e6f3784d312f69e76daa3d117bc546c00000000000000000000000000000000000000000000396ed0c13c44a40000000",
        "nonce": "0xae",
        "chainId": "0x515"
      },
      "additionalContracts": [],
      "isFixedGasLimit": false
    }
  ],
  "receipts": [
    {
      "status": "0x1",
      "cumulativeGasUsed": "0x79626",
      "logs": [
        {
          "address": "0x00b036b58a818b1bc34d502d3fe730db729e62ac",
          "topics": [
            "0xdd466e674ea557f56295e2d0218a125ea4b4f0f6f3307b95f85e6110838d6438",
            "0x79c10c98f0f5a8492a3b3b271ecbeac8cf94f798b60215d8106092dea4fd3978",
            "0x00000000000000000000000009727dcebbdfc13bcaf2c03acfc91ab14b27886b",
            "0x0000000000000000000000001be9b1b76ed8d0d40db33dcafdbce0448e4ff200"
          ],
          "data": "0x0000000000000000000000000000000000000000000000000000000000800000000000000000000000000000000000000000000000000000000000000000003c000000000000000000000000757e1f54e6f3784d312f69e76daa3d117bc546c00000000000000000000000000000000000000000000396ed0c13c44a40000000fffffffffffffffffffffffffffffffffffffffffffffffffffffffffffd015f",
          "blockHash": "0xbf728a835fe2b78e5c1dd06d18e9e6a954da4f705f9a4b3ac604967560d74c11",
          "blockNumber": "0x33beabe",
          "blockTimestamp": "0x6a29980a",
          "transactionHash": "0x6f5f806e7e2c76ea66024fa25325e83dde1b075922b6f0eb4ccad30270e1fc9f",
          "transactionIndex": "0x6",
          "logIndex": "0x4",
          "removed": false
        }
      ],
      "logsBloom": "0x00000000000000000000000000000000800000200000000000000000000000000000000000000000000000000000000080000000000000000000000000000000000000000000000000000000000000000000000000000000040000000000000000000000000000000000000000000000000000000000000000000000000010000000000000000008000000000008002000000001000000000000000000200000000000000000000000000000000000000000000000000000000000000000000000000000000000000000000000000000000000400000000100000002000000000000000000000000000000000000000000000000000002000000000000000010",
      "type": "0x2",
      "transactionHash": "0x6f5f806e7e2c76ea66024fa25325e83dde1b075922b6f0eb4ccad30270e1fc9f",
      "transactionIndex": "0x6",
      "blockHash": "0xbf728a835fe2b78e5c1dd06d18e9e6a954da4f705f9a4b3ac604967560d74c11",
      "blockNumber": "0x33beabe",
      "gasUsed": "0xcb50",
      "effectiveGasPrice": "0x7a121",
      "blobGasUsed": "0xdf70",
      "from": "0x02af376f613938a58c9567128e82bf3536a76f27",
      "to": "0x00b036b58a818b1bc34d502d3fe730db729e62ac",
      "contractAddress": null,
      "daFootprintGasScalar": "0x190",
      "l1BaseFeeScalar": "0x7d0",
      "l1BlobBaseFee": "0x39f497e",
      "l1BlobBaseFeeScalar": "0xdbba0",
      "l1Fee": "0x2f0d4d8ab",
      "l1GasPrice": "0x3d8d69bf",
      "l1GasUsed": "0x8ff"
    }
  ],
  "libraries": [],
  "pending": [],
  "returns": {},
  "timestamp": 1781110794,
  "chain": 1301,
  "commit": "4bdab0c"
}