{
  "transactions": [
    {
      "hash": "0x42b0ae9c00d106f12324ab40b4fda1b94a832b0ce7c9d54231aa2b229c066aa5",
      "transactionType": "CALL",
      "contractName": null,
      "contractAddress": "0x00b036b58a818b1bc34d502d3fe730db729e62ac",
      "function": "initialize((address,address,uint24,int24,address),uint160)",
      "arguments": [
        "(0x09727dCebbdfC13BCaf2C03ACFc91AB14B27886b, 0x1BE9b1b76eD8d0d40DB33dCafDBCE0448e4FF200, 8388608, 60, 0x1370d2f1244050A152F8a8A0922072bb54eBc6C0)",
        "4339505179874779662909440"
      ],
      "transaction": {
        "from": "0x02af376f613938a58c9567128e82bf3536a76f27",
        "to": "0x00b036b58a818b1bc34d502d3fe730db729e62ac",
        "gas": "0x118d3",
        "value": "0x0",
        "input": "0x6276cbbe00000000000000000000000009727dcebbdfc13bcaf2c03acfc91ab14b27886b0000000000000000000000001be9b1b76ed8d0d40db33dcafdbce0448e4ff2000000000000000000000000000000000000000000000000000000000000800000000000000000000000000000000000000000000000000000000000000000003c0000000000000000000000001370d2f1244050a152f8a8a0922072bb54ebc6c00000000000000000000000000000000000000000000396ed0c13c44a40000000",
        "nonce": "0x8b",
        "chainId": "0x515"
      },
      "additionalContracts": [],
      "isFixedGasLimit": false
    }
  ],
  "receipts": [
    {
      "status": "0x1",
      "cumulativeGasUsed": "0x4b5ce",
      "logs": [
        {
          "address": "0x00b036b58a818b1bc34d502d3fe730db729e62ac",
          "topics": [
            "0xdd466e674ea557f56295e2d0218a125ea4b4f0f6f3307b95f85e6110838d6438",
            "0x198c039d15a9e83af81d10cc37c7962537d26cf4ea137c0c8ad4724d7cc0d077",
            "0x00000000000000000000000009727dcebbdfc13bcaf2c03acfc91ab14b27886b",
            "0x0000000000000000000000001be9b1b76ed8d0d40db33dcafdbce0448e4ff200"
          ],
          "data": "0x0000000000000000000000000000000000000000000000000000000000800000000000000000000000000000000000000000000000000000000000000000003c0000000000000000000000001370d2f1244050a152f8a8a0922072bb54ebc6c00000000000000000000000000000000000000000000396ed0c13c44a40000000fffffffffffffffffffffffffffffffffffffffffffffffffffffffffffd015f",
          "blockHash": "0xded640a9e08a000ee381dd6c00c2945df39f2e17745f38b9ff1c2beaeb77d263",
          "blockNumber": "0x33b9b35",
          "blockTimestamp": "0x6a294881",
          "transactionHash": "0x42b0ae9c00d106f12324ab40b4fda1b94a832b0ce7c9d54231aa2b229c066aa5",
          "transactionIndex": "0x4",
          "logIndex": "0x2",
          "removed": false
        }
      ],
      "logsBloom": "0x00000000000000000000000000000000800000000000000000000000000000000200000000000000000000000000000080000000000000000000000000000000000000000000000000000000000000000000000000000000040000000000000000000000000000000000000000000000000000000000000000000000000000000000000000000008000000000008000000000001000000000000000000200000000000000000000000000000000000000000000000000000000000000000000000100000000000000000000000000000000000400000000100000002000000000000000000000000000000000000000000000000000002000000000000000010",
      "type": "0x0",
      "transactionHash": "0x42b0ae9c00d106f12324ab40b4fda1b94a832b0ce7c9d54231aa2b229c066aa5",
      "transactionIndex": "0x4",
      "blockHash": "0xded640a9e08a000ee381dd6c00c2945df39f2e17745f38b9ff1c2beaeb77d263",
      "blockNumber": "0x33b9b35",
      "gasUsed": "0xcb50",
      "effectiveGasPrice": "0x16e360",
      "blobGasUsed": "0xdac0",
      "from": "0x02af376f613938a58c9567128e82bf3536a76f27",
      "to": "0x00b036b58a818b1bc34d502d3fe730db729e62ac",
      "contractAddress": null,
      "daFootprintGasScalar": "0x190",
      "l1BaseFeeScalar": "0x7d0",
      "l1BlobBaseFee": "0x27108d7e",
      "l1BlobBaseFeeScalar": "0xdbba0",
      "l1Fee": "0x1e3bbd57ed",
      "l1GasPrice": "0x26d7530b5",
      "l1GasUsed": "0x8c9"
    }
  ],
  "libraries": [],
  "pending": [],
  "returns": {},
  "timestamp": 1781090433,
  "chain": 1301,
  "commit": "85f7289"
}