{
  "transactions": [
    {
      "hash": "0x643b15b9a558c42fd01bcfc3668fcd7eeea2002c12e0693a5dde0f0a283c9380",
      "transactionType": "CALL",
      "contractName": null,
      "contractAddress": "0xc34ad85bd0a4385b1d727b351108881e8c34628e",
      "function": "setAnswer(int256)",
      "arguments": [
        "310000000000"
      ],
      "transaction": {
        "from": "0x02af376f613938a58c9567128e82bf3536a76f27",
        "to": "0xc34ad85bd0a4385b1d727b351108881e8c34628e",
        "value": "0x0",
        "input": "0x99213cd8000000000000000000000000000000000000000000000000000000482d709c00",
        "nonce": "0xaf",
        "chainId": "0x515"
      },
      "additionalContracts": [],
      "isFixedGasLimit": false
    }
  ],
  "receipts": [
    {
      "status": "0x1",
      "cumulativeGasUsed": "0x7d820",
      "logs": [
        {
          "address": "0xc34ad85bd0a4385b1d727b351108881e8c34628e",
          "topics": [
            "0x0559884fd3a460db3073b7fc896cc77986f16e378210ded43186175bf646fc5f",
            "0x000000000000000000000000000000000000000000000000000000482d709c00",
            "0x0000000000000000000000000000000000000000000000000000000000000002"
          ],
          "data": "0x000000000000000000000000000000000000000000000000000000006a29ae65",
          "blockHash": "0x40bdab1fa973fc39944028f31932b242f0de78b799746606798126f0dc0c6520",
          "blockNumber": "0x33c0119",
          "blockTimestamp": "0x6a29ae65",
          "transactionHash": "0x643b15b9a558c42fd01bcfc3668fcd7eeea2002c12e0693a5dde0f0a283c9380",
          "transactionIndex": "0x7",
          "logIndex": "0x5",
          "removed": false
        }
      ],
      "logsBloom": "0x04000000000000000000000000000000000200000000000000000000800000000000000000000000000000000000000000000000000200000000000800000000000000000000000000000000000000000000000000000000000000000000000000000000000000000000000000000000000000000000000000000000000000000000000000000000000000000000000000000480000000001000000000000000000000000000000000000100000000000000000010000000000000000000000000000000000000000000000000000000000000000000000000000000000000000000000000000000000000000000000000000000008000000000000000020000",
      "type": "0x2",
      "transactionHash": "0x643b15b9a558c42fd01bcfc3668fcd7eeea2002c12e0693a5dde0f0a283c9380",
      "transactionIndex": "0x7",
      "blockHash": "0x40bdab1fa973fc39944028f31932b242f0de78b799746606798126f0dc0c6520",
      "blockNumber": "0x33c0119",
      "gasUsed": "0x9600",
      "effectiveGasPrice": "0x7a121",
      "blobGasUsed": "0x9c40",
      "from": "0x02af376f613938a58c9567128e82bf3536a76f27",
      "to": "0xc34ad85bd0a4385b1d727b351108881e8c34628e",
      "contractAddress": null,
      "daFootprintGasScalar": "0x190",
      "l1BaseFeeScalar": "0x7d0",
      "l1BlobBaseFee": "0x3dfd5d8",
      "l1BlobBaseFeeScalar": "0xdbba0",
      "l1Fee": "0x237589810",
      "l1GasPrice": "0x4454512a",
      "l1GasUsed": "0x640"
    }
  ],
  "libraries": [],
  "pending": [],
  "returns": {},
  "timestamp": 1781116517,
  "chain": 1301,
  "commit": "4bdab0c"
}