{
  "transactions": [
    {
      "hash": "0x0860b927772e3303ff4aa7bf77dc87c9f629ba8a00048c36eb78eb8b4a0f765f",
      "transactionType": "CALL",
      "contractName": null,
      "contractAddress": "0x09727dcebbdfc13bcaf2c03acfc91ab14b27886b",
      "function": "mint(address,uint256)",
      "arguments": [
        "0x1370d2f1244050A152F8a8A0922072bb54eBc6C0",
        "60000000000000"
      ],
      "transaction": {
        "from": "0x02af376f613938a58c9567128e82bf3536a76f27",
        "to": "0x09727dcebbdfc13bcaf2c03acfc91ab14b27886b",
        "gas": "0x1133d",
        "value": "0x0",
        "input": "0x40c10f190000000000000000000000001370d2f1244050a152f8a8a0922072bb54ebc6c000000000000000000000000000000000000000000000000000003691d6afc000",
        "nonce": "0xa4",
        "chainId": "0x515"
      },
      "additionalContracts": [],
      "isFixedGasLimit": false
    },
    {
      "hash": "0x953d7083ef6847cd060672602405afdc20c1e77022c5f0feccced9f967cfbd9b",
      "transactionType": "CALL",
      "contractName": null,
      "contractAddress": "0x1370d2f1244050a152f8a8a0922072bb54ebc6c0",
      "function": "flushToVault(address)",
      "arguments": [
        "0x09727dCebbdfC13BCaf2C03ACFc91AB14B27886b"
      ],
      "transaction": {
        "from": "0x02af376f613938a58c9567128e82bf3536a76f27",
        "to": "0x1370d2f1244050a152f8a8a0922072bb54ebc6c0",
        "gas": "0x2002c",
        "value": "0x0",
        "input": "0x75f18c5f00000000000000000000000009727dcebbdfc13bcaf2c03acfc91ab14b27886b",
        "nonce": "0xa5",
        "chainId": "0x515"
      },
      "additionalContracts": [],
      "isFixedGasLimit": false
    }
  ],
  "receipts": [
    {
      "status": "0x1",
      "cumulativeGasUsed": "0x90235",
      "logs": [
        {
          "address": "0x09727dcebbdfc13bcaf2c03acfc91ab14b27886b",
          "topics": [
            "0xddf252ad1be2c89b69c2b068fc378daa952ba7f163c4a11628f55a4df523b3ef",
            "0x0000000000000000000000000000000000000000000000000000000000000000",
            "0x0000000000000000000000001370d2f1244050a152f8a8a0922072bb54ebc6c0"
          ],
          "data": "0x00000000000000000000000000000000000000000000000000003691d6afc000",
          "blockHash": "0x994a6f59f386484c20508722c08da2332a45b92233fa04e416b99373c235f6b7",
          "blockNumber": "0x33be32f",
          "blockTimestamp": "0x6a29907b",
          "transactionHash": "0x0860b927772e3303ff4aa7bf77dc87c9f629ba8a00048c36eb78eb8b4a0f765f",
          "transactionIndex": "0x7",
          "logIndex": "0x5",
          "removed": false
        }
      ],
      "logsBloom": "0x00000001000000000000000000000000000000000040000000000000000000000000000000000000000000000000000000000000000000008000000000000000000000000000000000002008000000000000000000000000000000000000000000000000020000000000000000000800000000000000000000000010000000000000000000000000000000400000000000000000000000000000000000000000000000000000000000000000000000000000000008000000000000000000000000000002000000000000000000000000000000000000000000000000000020000000000000000000000000000000000000000000000000000000000000000000",
      "type": "0x2",
      "transactionHash": "0x0860b927772e3303ff4aa7bf77dc87c9f629ba8a00048c36eb78eb8b4a0f765f",
      "transactionIndex": "0x7",
      "blockHash": "0x994a6f59f386484c20508722c08da2332a45b92233fa04e416b99373c235f6b7",
      "blockNumber": "0x33be32f",
      "gasUsed": "0xc745",
      "effectiveGasPrice": "0x7a121",
      "blobGasUsed": "0x9c40",
      "from": "0x02af376f613938a58c9567128e82bf3536a76f27",
      "to": "0x09727dcebbdfc13bcaf2c03acfc91ab14b27886b",
      "contractAddress": null,
      "daFootprintGasScalar": "0x190",
      "l1BaseFeeScalar": "0x7d0",
      "l1BlobBaseFee": "0x7207b77",
      "l1BlobBaseFeeScalar": "0xdbba0",
      "l1Fee": "0x3e277c5f6",
      "l1GasPrice": "0x6e53dd6a",
      "l1GasUsed": "0x640"
    },
    {
      "status": "0x1",
      "cumulativeGasUsed": "0xa7504",
      "logs": [
        {
          "address": "0x09727dcebbdfc13bcaf2c03acfc91ab14b27886b",
          "topics": [
            "0x8c5be1e5ebec7d5bd14f71427d1e84f3dd0314c0f7b2291e5b200ac8c7c3b925",
            "0x0000000000000000000000001370d2f1244050a152f8a8a0922072bb54ebc6c0",
            "0x0000000000000000000000006ad065f00aba43f79920d229edee5dabcdd3cffd"
          ],
          "data": "0x00000000000000000000000000000000000000000000000000003691d6afc000",
          "blockHash": "0x994a6f59f386484c20508722c08da2332a45b92233fa04e416b99373c235f6b7",
          "blockNumber": "0x33be32f",
          "blockTimestamp": "0x6a29907b",
          "transactionHash": "0x953d7083ef6847cd060672602405afdc20c1e77022c5f0feccced9f967cfbd9b",
          "transactionIndex": "0x8",
          "logIndex": "0x6",
          "removed": false
        },
        {
          "address": "0x09727dcebbdfc13bcaf2c03acfc91ab14b27886b",
          "topics": [
            "0xddf252ad1be2c89b69c2b068fc378daa952ba7f163c4a11628f55a4df523b3ef",
            "0x0000000000000000000000001370d2f1244050a152f8a8a0922072bb54ebc6c0",
            "0x0000000000000000000000006ad065f00aba43f79920d229edee5dabcdd3cffd"
          ],
          "data": "0x00000000000000000000000000000000000000000000000000003691d6afc000",
          "blockHash": "0x994a6f59f386484c20508722c08da2332a45b92233fa04e416b99373c235f6b7",
          "blockNumber": "0x33be32f",
          "blockTimestamp": "0x6a29907b",
          "transactionHash": "0x953d7083ef6847cd060672602405afdc20c1e77022c5f0feccced9f967cfbd9b",
          "transactionIndex": "0x8",
          "logIndex": "0x7",
          "removed": false
        },
        {
          "address": "0x6ad065f00aba43f79920d229edee5dabcdd3cffd",
          "topics": [
            "0x42d7226a69351c5360751810cc72fb1e8803f71f0c06e30eb8d9da6b8ccf4e19",
            "0x00000000000000000000000009727dcebbdfc13bcaf2c03acfc91ab14b27886b"
          ],
          "data": "0x00000000000000000000000000000000000000000000000000003691d6afc00000000000000000000000000000000000000000000000000000003691d6afc000",
          "blockHash": "0x994a6f59f386484c20508722c08da2332a45b92233fa04e416b99373c235f6b7",
          "blockNumber": "0x33be32f",
          "blockTimestamp": "0x6a29907b",
          "transactionHash": "0x953d7083ef6847cd060672602405afdc20c1e77022c5f0feccced9f967cfbd9b",
          "transactionIndex": "0x8",
          "logIndex": "0x8",
          "removed": false
        },
        {
          "address": "0x1370d2f1244050a152f8a8a0922072bb54ebc6c0",
          "topics": [
            "0x7b3cca2ca8c3569102360d1eacfb412f4ddef632a93763ced95da1a7bf64ad23",
            "0x00000000000000000000000009727dcebbdfc13bcaf2c03acfc91ab14b27886b"
          ],
          "data": "0x00000000000000000000000000000000000000000000000000003691d6afc000",
          "blockHash": "0x994a6f59f386484c20508722c08da2332a45b92233fa04e416b99373c235f6b7",
          "blockNumber": "0x33be32f",
          "blockTimestamp": "0x6a29907b",
          "transactionHash": "0x953d7083ef6847cd060672602405afdc20c1e77022c5f0feccced9f967cfbd9b",
          "transactionIndex": "0x8",
          "logIndex": "0x9",
          "removed": false
        }
      ],
      "logsBloom": "0x00000001000000000000000000000000000000000040000000000000000000000000020000000000080000000000000080000000000000108000000000200000000000000000000000002008000000000000200000000000040000000001000000040000000000800000000080000000000000000001000000000010000000000000000000000000000000400100400000000000000000100010000000000000020000000000000000000000000000000000000008000000100000000000000000000002000000000000000000000000000000400000000000000000000000000010000000000000040000000000000000000000000000000000000000000000",
      "type": "0x2",
      "transactionHash": "0x953d7083ef6847cd060672602405afdc20c1e77022c5f0feccced9f967cfbd9b",
      "transactionIndex": "0x8",
      "blockHash": "0x994a6f59f386484c20508722c08da2332a45b92233fa04e416b99373c235f6b7",
      "blockNumber": "0x33be32f",
      "gasUsed": "0x172cf",
      "effectiveGasPrice": "0x7a121",
      "blobGasUsed": "0x9c40",
      "from": "0x02af376f613938a58c9567128e82bf3536a76f27",
      "to": "0x1370d2f1244050a152f8a8a0922072bb54ebc6c0",
      "contractAddress": null,
      "daFootprintGasScalar": "0x190",
      "l1BaseFeeScalar": "0x7d0",
      "l1BlobBaseFee": "0x7207b77",
      "l1BlobBaseFeeScalar": "0xdbba0",
      "l1Fee": "0x3e277c5f6",
      "l1GasPrice": "0x6e53dd6a",
      "l1GasUsed": "0x640"
    }
  ],
  "libraries": [],
  "pending": [],
  "returns": {},
  "timestamp": 1781108859,
  "chain": 1301,
  "commit": "4bdab0c"
}