{
  "transactions": [
    {
      "hash": "0x7b9e7b97e0aebf2756bc8034c40e9b379ab0fb899749c58520ea7b1851923309",
      "transactionType": "CALL",
      "contractName": null,
      "contractAddress": "0x09727dcebbdfc13bcaf2c03acfc91ab14b27886b",
      "function": "mint(address,uint256)",
      "arguments": [
        "0x757e1F54E6f3784d312f69E76Daa3D117bc546c0",
        "90000000000000"
      ],
      "transaction": {
        "from": "0x02af376f613938a58c9567128e82bf3536a76f27",
        "to": "0x09727dcebbdfc13bcaf2c03acfc91ab14b27886b",
        "value": "0x0",
        "input": "0x40c10f19000000000000000000000000757e1f54e6f3784d312f69e76daa3d117bc546c0000000000000000000000000000000000000000000000000000051dac207a000",
        "nonce": "0xb9",
        "chainId": "0x515"
      },
      "additionalContracts": [],
      "isFixedGasLimit": false
    },
    {
      "hash": "0x7b45ae74418f3a641f47aae62163c24a8abf2d6f53d1485f7208abf626fdc348",
      "transactionType": "CALL",
      "contractName": null,
      "contractAddress": "0x757e1f54e6f3784d312f69e76daa3d117bc546c0",
      "function": "flushToVault(address)",
      "arguments": [
        "0x09727dCebbdfC13BCaf2C03ACFc91AB14B27886b"
      ],
      "transaction": {
        "from": "0x02af376f613938a58c9567128e82bf3536a76f27",
        "to": "0x757e1f54e6f3784d312f69e76daa3d117bc546c0",
        "value": "0x0",
        "input": "0x75f18c5f00000000000000000000000009727dcebbdfc13bcaf2c03acfc91ab14b27886b",
        "nonce": "0xba",
        "chainId": "0x515"
      },
      "additionalContracts": [],
      "isFixedGasLimit": false
    }
  ],
  "receipts": [
    {
      "status": "0x1",
      "cumulativeGasUsed": "0x64d91",
      "logs": [
        {
          "address": "0x09727dcebbdfc13bcaf2c03acfc91ab14b27886b",
          "topics": [
            "0xddf252ad1be2c89b69c2b068fc378daa952ba7f163c4a11628f55a4df523b3ef",
            "0x0000000000000000000000000000000000000000000000000000000000000000",
            "0x000000000000000000000000757e1f54e6f3784d312f69e76daa3d117bc546c0"
          ],
          "data": "0x000000000000000000000000000000000000000000000000000051dac207a000",
          "blockHash": "0x60b5c936b55eacafd292fb23fb903dce0cb2dbf60ae2f032459616cada3a13e9",
          "blockNumber": "0x33c2b6d",
          "blockTimestamp": "0x6a29d8b9",
          "transactionHash": "0x7b9e7b97e0aebf2756bc8034c40e9b379ab0fb899749c58520ea7b1851923309",
          "transactionIndex": "0x5",
          "logIndex": "0x3",
          "removed": false
        }
      ],
      "logsBloom": "0x00000000000000000000000000000000000000000040000000000000000000000000000000000000000000000000000000000000000200000000000000000000000000000000000000002008000000000000000000000000000000000000000000000000020000000000000000000800000000000000000000000010000000000000000000000000000000000000000000000000000000000000000000000000000000000000000000000000000000000000000008000000000040000000000000000002000000000000000000200000000000000000000000000000000020000000000000000000000000000000000000000000000000000000000000000000",
      "type": "0x2",
      "transactionHash": "0x7b9e7b97e0aebf2756bc8034c40e9b379ab0fb899749c58520ea7b1851923309",
      "transactionIndex": "0x5",
      "blockHash": "0x60b5c936b55eacafd292fb23fb903dce0cb2dbf60ae2f032459616cada3a13e9",
      "blockNumber": "0x33c2b6d",
      "gasUsed": "0xc745",
      "effectiveGasPrice": "0x7a121",
      "blobGasUsed": "0x9c40",
      "from": "0x02af376f613938a58c9567128e82bf3536a76f27",
      "to": "0x09727dcebbdfc13bcaf2c03acfc91ab14b27886b",
      "contractAddress": null,
      "daFootprintGasScalar": "0x190",
      "l1BaseFeeScalar": "0x7d0",
      "l1BlobBaseFee": "0x38ab020",
      "l1BlobBaseFeeScalar": "0xdbba0",
      "l1Fee": "0x20a50cf86",
      "l1GasPrice": "0x3f9ca756",
      "l1GasUsed": "0x640"
    },
    {
      "status": "0x1",
      "cumulativeGasUsed": "0x6da7b",
      "logs": [
        {
          "address": "0x09727dcebbdfc13bcaf2c03acfc91ab14b27886b",
          "topics": [
            "0x8c5be1e5ebec7d5bd14f71427d1e84f3dd0314c0f7b2291e5b200ac8c7c3b925",
            "0x000000000000000000000000757e1f54e6f3784d312f69e76daa3d117bc546c0",
            "0x0000000000000000000000005954cddc53b2a32aca7ce00383504062e75ccfb9"
          ],
          "data": "0x000000000000000000000000000000000000000000000000000051dac207a000",
          "blockHash": "0x8271b6d417c68214a42d1b017c8ccb223c2e8c5766e5d44ebd2fe8f3fdc3ed1c",
          "blockNumber": "0x33c2b71",
          "blockTimestamp": "0x6a29d8bd",
          "transactionHash": "0x7b45ae74418f3a641f47aae62163c24a8abf2d6f53d1485f7208abf626fdc348",
          "transactionIndex": "0x5",
          "logIndex": "0x3",
          "removed": false
        },
        {
          "address": "0x09727dcebbdfc13bcaf2c03acfc91ab14b27886b",
          "topics": [
            "0xddf252ad1be2c89b69c2b068fc378daa952ba7f163c4a11628f55a4df523b3ef",
            "0x000000000000000000000000757e1f54e6f3784d312f69e76daa3d117bc546c0",
            "0x0000000000000000000000005954cddc53b2a32aca7ce00383504062e75ccfb9"
          ],
          "data": "0x000000000000000000000000000000000000000000000000000051dac207a000",
          "blockHash": "0x8271b6d417c68214a42d1b017c8ccb223c2e8c5766e5d44ebd2fe8f3fdc3ed1c",
          "blockNumber": "0x33c2b71",
          "blockTimestamp": "0x6a29d8bd",
          "transactionHash": "0x7b45ae74418f3a641f47aae62163c24a8abf2d6f53d1485f7208abf626fdc348",
          "transactionIndex": "0x5",
          "logIndex": "0x4",
          "removed": false
        },
        {
          "address": "0x5954cddc53b2a32aca7ce00383504062e75ccfb9",
          "topics": [
            "0xa357ee97b3127a61929c73a7ef7b27b79a11d8905bd9061707ce909663771d58"
          ],
          "data": "0x00000000000000000000000000000000000000000000000000000000000007d000000000000000000000000000000000000000000000000000000000000003e8",
          "blockHash": "0x8271b6d417c68214a42d1b017c8ccb223c2e8c5766e5d44ebd2fe8f3fdc3ed1c",
          "blockNumber": "0x33c2b71",
          "blockTimestamp": "0x6a29d8bd",
          "transactionHash": "0x7b45ae74418f3a641f47aae62163c24a8abf2d6f53d1485f7208abf626fdc348",
          "transactionIndex": "0x5",
          "logIndex": "0x5",
          "removed": false
        },
        {
          "address": "0x5954cddc53b2a32aca7ce00383504062e75ccfb9",
          "topics": [
            "0x42d7226a69351c5360751810cc72fb1e8803f71f0c06e30eb8d9da6b8ccf4e19",
            "0x00000000000000000000000009727dcebbdfc13bcaf2c03acfc91ab14b27886b"
          ],
          "data": "0x000000000000000000000000000000000000000000000000000051dac207a000000000000000000000000000000000000000000000000000000051dac207a000",
          "blockHash": "0x8271b6d417c68214a42d1b017c8ccb223c2e8c5766e5d44ebd2fe8f3fdc3ed1c",
          "blockNumber": "0x33c2b71",
          "blockTimestamp": "0x6a29d8bd",
          "transactionHash": "0x7b45ae74418f3a641f47aae62163c24a8abf2d6f53d1485f7208abf626fdc348",
          "transactionIndex": "0x5",
          "logIndex": "0x6",
          "removed": false
        },
        {
          "address": "0x757e1f54e6f3784d312f69e76daa3d117bc546c0",
          "topics": [
            "0x7b3cca2ca8c3569102360d1eacfb412f4ddef632a93763ced95da1a7bf64ad23",
            "0x00000000000000000000000009727dcebbdfc13bcaf2c03acfc91ab14b27886b"
          ],
          "data": "0x000000000000000000000000000000000000000000000000000051dac207a000",
          "blockHash": "0x8271b6d417c68214a42d1b017c8ccb223c2e8c5766e5d44ebd2fe8f3fdc3ed1c",
          "blockNumber": "0x33c2b71",
          "blockTimestamp": "0x6a29d8bd",
          "transactionHash": "0x7b45ae74418f3a641f47aae62163c24a8abf2d6f53d1485f7208abf626fdc348",
          "transactionIndex": "0x5",
          "logIndex": "0x7",
          "removed": false
        }
      ],
      "logsBloom": "0x00000000000000000000000000000000000000000040000000000000000000000000000000000000000000000000000080000000000200100000000008200044000000000000000000002008000002000000000000000000040010000000000000000000000000000000000080000000000000000001000000000010000000400000000000000000002000000000000000000000000000000010000000000000020800000000000000000000000000004000000008000000100040000000000000000002000000000000000000280000000000400000000000000000000000000010000000000008040000000000000000000000000000000000000000000000",
      "type": "0x2",
      "transactionHash": "0x7b45ae74418f3a641f47aae62163c24a8abf2d6f53d1485f7208abf626fdc348",
      "transactionIndex": "0x5",
      "blockHash": "0x8271b6d417c68214a42d1b017c8ccb223c2e8c5766e5d44ebd2fe8f3fdc3ed1c",
      "blockNumber": "0x33c2b71",
      "gasUsed": "0x17fd7",
      "effectiveGasPrice": "0x7a121",
      "blobGasUsed": "0x9c40",
      "from": "0x02af376f613938a58c9567128e82bf3536a76f27",
      "to": "0x757e1f54e6f3784d312f69e76daa3d117bc546c0",
      "contractAddress": null,
      "daFootprintGasScalar": "0x190",
      "l1BaseFeeScalar": "0x7d0",
      "l1BlobBaseFee": "0x38ab020",
      "l1BlobBaseFeeScalar": "0xdbba0",
      "l1Fee": "0x20a50cf86",
      "l1GasPrice": "0x3f9ca756",
      "l1GasUsed": "0x640"
    }
  ],
  "libraries": [],
  "pending": [],
  "returns": {},
  "timestamp": 1781127357,
  "chain": 1301,
  "commit": "4bdab0c"
}